:0400000000408E68C6
:20800000E20304BDE20305BDE20306BDFE20761F033EE2AF0026761F03BEE2AF0108E720C9
:2080100000087700E203004C9A00E2AF0016E2AF014CE6940001AD1462029A01965F761FBC
:2080200001ACE2840000761F033EE203002A761F01ADE2840000761F033EE203002C761F23
:2080300003BEE2AF0018761F033EE2AF012CE6940001AD14650B761F03BEE2AF000CE7208C
:2080400000087700E20300466F03062C1E46761F03BEE2AF0146E2AF001AE700000877002F
:20805000E203004CE2AF011CE70000087700E2030054761F033EE2AF0154E2AF002E761F82
:2080600003BEE7200008E2AF0604E70000307700E2030056761F033E9238612206561E30FF
:20807000761F03BEE2AF0020761F033EE2AF0130E6940001AD146408761F03BE0620761F98
:20808000033E1E306F0D761F03BEE2AF0022E6940001AD1462050622761F033E1E30925FEC
:208090006005761F033E923661240656761F033E1E30761F03BEE2AF0020761F033EE2AF5A
:2080A0000130E6940001AD146408761F03BE0620761F033E1E306F0D761F03BEE2AF0022C2
:2080B000E6940001AD1462050622761F033E1E30761F03BEE2AF0020761F033EE2AF013022
:2080C000E6940001AD146408761F03BE0620761F033E1E306F0D761F03BEE2AF0022E69459
:2080D0000001AD1462050622761F033E1E30761F03BEE2AF0024761F033EE2AF0130E694FE
:2080E0000001AD146506761F03BE06241E586F10761F03BEE2AF0026E6940001AD1463042E
:2080F00006261E586F05761F033E06301E58761F03BEE2AF002A761F033EE2AF012AE694BB
:208100000001AD14650B761F03BEE2AF000EE72000087700E20300486F03062A1E48761FE8
:2081100003BEE2AF0148E2AF002CE70000087700E203004E761F033E9A00E2AF0122761FA5
:2081200003BEE2AF020AE7200051E2AF0014E6940001AD1462029A019660E2AF004EE2AF43
:208130000130E70000087700E203005A761F033EE2AF015AE2AF0032761F03BEE72000086F
:20814000E2AF0606E70000307700E203005C761F033E92396122065C1E34761F03BEE2AFF4
:208150000034761F033EE2AF0134E6940001AD146408761F03BE0634761F033E1E346F0D63
:20816000761F03BEE2AF0036E6940001AD1462050636761F033E1E3492606005761F033EAE
:2081700092376124065C761F033E1E34761F03BEE2AF0034761F033EE2AF0134E6940001E5
:20818000AD146408761F03BE0634761F033E1E346F0D761F03BEE2AF0036E6940001AD1425
:2081900062050636761F033E1E34761F03BEE2AF0034761F033EE2AF0134E6940001AD1411
:2081A0006408761F03BE0634761F033E1E346F0D761F03BEE2AF0036E6940001AD1462055F
:2081B0000636761F033E1E34761F03BEE2AF0038761F033EE2AF0134E6940001AD146506E9
:2081C000761F03BE06381E446F10761F03BEE2AF003AE6940001AD146304063A1E446F0550
:2081D000761F033E06341E44761F03BEE2AF0244E2AF054EE2AF013CE2AF044CE302882EC2
:2081E000E301433EE3071658E3120428E7000135E71000807700E71001407700E203004EB4
:2081F000761F03BFE2AF014EE2AF0000E70000087700E203005EE2AF015EE2AF000CE694F7
:208200000001AD14650B761F03BEE2AF0012E71000407700E203004A6F0A761F03BEE2AFF6
:208210000010E72000087700E203004A761F03BFE2AF014AE2AF0002E6940001AD1465041E
:2082200006021E4E6F0CE2AF0004E6940001AD14630406041E4E6F03064A1E4EE2AF0006DC
:20823000E6940001AD14650406061E4C6F0CE2AF0008E6940001AD14630406081E4C6F0372
:20824000064A1E4CE2AF004CE2AF010AE70000087700E203004CE2AF004EE68E0000761F6C
:2082500001A0E2130009E2AF004CE68E00007700E213000AE2AF015CE2AF0044E7200008D6
:208260007700E203005C761F03BEE2AF000A761F033EE2AF0122E6940001AD146205764072
:2082700088B452006106761F033E06221E4E6F05761F03BE060A1E4EE2AF004E9A00E5A04B
:20828000AD1460029A013B0185A9BDA90F127700770077007700E68900007700E8496000DC
:20829000E2AF014EE71000407700E2030050761F03BEE2AF0008761F033EE2AF0126E69414
:2082A0000001AD146205764088B452006106761F033E06261E4E6F05761F03BE06081E4E38
:2082B000E2AF004E9A00E5A0AD1460029A013B0185A9BDA90F127700770077007700E689B6
:2082C00000007700E8496000E2AF014EE71000407700E2030052761F033E06541E2E2B38F2
:2082D000E801FC00E2AF015276408E38E2AF0158E2AF0256E7200051761F03BEE300461E81
:2082E000761F033EE7000031E2AF0530E71001487700E2030030761F03BEE2AF0020761F62
:2082F000033EE2AF0130E6940001AD146408761F03BE0620761F033E1E306F0D761F03BE51
:20830000E2AF0022E6940001AD1462050622761F033E1E30925F761F033E9636065A1E3278
:208310002B39E801FC00E2AF015076408E38761F03BEE2AF015CE3004632761F033EE7004A
:208320000031E2AF0534E71001487700E2030034761F03BEE2AF0034761F033EE2AF0134BB
:20833000E6940001AD146408761F03BE0634761F033E1E346F0D761F03BEE2AF0036E694BA
:208340000001AD1462050636761F033E1E349260761F033E9637FEA0E2AF06BEE2AF05BEB4
:20835000E2AF04BE0006FE1602027640885C761F039D0610761F03BE1E20761F039D0612D6
:20836000761F03BE1E22761F039D0610761F03BE1E24761F039D0612761F03BE1E26761F08
:20837000039D0610761F03BE1E34761F039D0612761F03BE1E36761F039D0610761F03BEF7
:208380001E38761F039D0612761F03BE1E3A761F03C38A1002001EC48F00CFA2F60B2B8403
:208390008F00CFAEF60B2B84E801C688761F033EE80DB8B8E2030022E590E2030024E80131
:2083A000C688E80DB8B8E2030026E590E2030028B600BE00D400D500C342C2447680FFFF61
:2083B0001E4656BF084706A628488000284980772B4A76408970B600BE000200D400D5009E
:2083C000C342C2441E467680FFFF56BF084706A62848800056BF77492B4A764089B2761F6A
:2083D00001A0280501D4CC00C0401AA909309600180300002B041807FFA02B092B0A56BF06
:2083E000580B280C0508180DFF3F180EFFF0180FFFC02B102B11921990F01AA91101961955
:2083F000CC1ACCFC1AA91101961A181EF80076222B12CC14FFF0500F96141815FFF9761AAA
:208400007622761F01C01A1C0004761A761F03BE0600761F033E1E2E2B3656BF0138761FE2
:2084100003BE0602761F033E1E322B3756BF01395CADDC920EA41E548F00C000A8568A54E6
:20842000835606C41EC55CADDC8E0EA41E548F00E780A8568A54E2AF00C4E68C00008A56A6
:20843000E21300C45CADDC900EA41E548F00DF80A8568A54E2AF00C4E68C00008A56E21374
:2084400000C45CADDC8C0EA41E548F00CFC0A8568A54835606C41EC5FF69FE96000600063B
:20845000761BFFF0E20000BDE63006002942561676256F00761BFFF0E20000BDE6300600B5
:208460002942561676256F00761BFFF0E20000BDE63006002942561676256F00761BFFF07F
:20847000E20000BDE63006002942561676256F00761BFFF0E20000BDE6300600294256163E
:2084800076256F00761BFFF0E20000BDE63006002942561676256F00761BFFF0E20000BD97
:20849000E63006002942561676256F00761BFFF0E20000BDE63006002942561676256F00B3
:2084A000761BFFF0E20000BDE63006002942561676256F00761BFFF0E20000BDE630060065
:2084B0002942561676256F00761BFFF0E20000BDE63006002942561676256F00761BFFF02F
:2084C000E20000BDE63006002942561676256F00761BFFF0E20000BDE630060029425616EE
:2084D00076256F00761BFFF0E20000BDE63006002942561676256F00761BFFF0E20000BD47
:2084E000E63006002942561676256F00761BFFF0E20000BDE63006002942561676256F0063
:2084F000761BFFF0E20000BDE63006002942561676256F00761BFFF0E20000BDE630060015
:208500002942561676256F00761BFFF0E20000BDE63006002942561676256F00761BFFF0DE
:20851000E20000BDE63006002942561676256F00761BFFF0E20000BDE6300600294256169D
:2085200076256F00761BFFF0E20000BDE63006002942561676256F00761BFFF0E20000BDF6
:20853000E63006002942561676256F00761BFFF0E20000BDE63006002942561676256F0012
:20854000761BFFF0E20000BDE63006002942561676256F00761BFFF0E20000BDE6300600C4
:208550002942561676256F00761BFFF0E20000BDE63006002942561676256F00761BFFF08E
:20856000E20000BDE63006002942561676256F00761BFFF0E20000BDE6300600294256164D
:2085700076256F00761BFFF0E20000BDE63006002942561676256F00761BFFF0E20000BDA6
:20858000E63006002942561676256F00761BFFF0E20000BDE63006002942561676256F00C2
:20859000761BFFF0E20000BDE63006002942561676256F00761BFFF0E20000BDE630060074
:2085A0002942561676256F00761BFFF0E20000BDE63006002942561676256F00761BFFF03E
:2085B000E20000BDE63006002942561676256F00761BFFF0E20000BDE630060029425616FD
:2085C00076256F00761BFFF0E20000BDE63006002942561676256F00761BFFF0E20000BD56
:2085D000E63006002942561676256F00761BFFF0E20000BDE63006002942561676256F0072
:2085E000761BFFF0E20000BDE63006002942561676256F00761BFFF0E20000BDE630060024
:2085F0002942561676256F00761BFFF0E20000BDE63006002942561676256F00761BFFF0EE
:20860000E20000BDE63006002942561676256F00761BFFF0E20000BDE630060029425616AC
:2086100076256F00761BFFF0E20000BDE63006002942561676256F00761BFFF0E20000BD05
:20862000E63006002942561676256F00761BFFF0E20000BDE63006002942561676256F0021
:20863000761BFFF0E20000BDE63006002942561676256F00761BFFF0E20000BDE6300600D3
:208640002942561676256F00761BFFF0E20000BDE63006002942561676256F00761BFFF09D
:20865000E20000BDE63006002942561676256F00761BFFF0E20000BDE6300600294256165C
:2086600076256F00761BFFF0E20000BDE63006002942561676256F00761BFFF0E20000BDB5
:20867000E63006002942561676256F00761BFFF0E20000BDE63006002942561676256F00D1
:20868000761BFFF0E20000BDE63006002942561676256F00761BFFF0E20000BDE630060083
:208690002942561676256F00761BFFF0E20000BDE63006002942561676256F00761BFFF04D
:2086A000E20000BDE63006002942561676256F00761BFFF0E20000BDE6300600294256160C
:2086B00076256F00761BFFF0E20000BDE63006002942561676256F00761BFFF0E20000BD65
:2086C000E63006002942561676256F00761BFFF0E20000BDE63006002942561676256F0081
:2086D000761BFFF0E20000BDE63006002942561676256F00761BFFF0E20000BDE630060033
:2086E0002942561676256F00761BFFF0E20000BDE63006002942561676256F00761BFFF0FD
:2086F000E20000BDE63006002942561676256F00761BFFF0E20000BDE630060029425616BC
:2087000076256F00761BFFF0E20000BDE63006002942561676256F00761BFFF0E20000BD14
:20871000E63006002942561676256F00761BFFF0E20000BDE63006002942561676256F0030
:20872000761BFFF0E20000BDE63006002942561676256F00761BFFF0E20000BDE6300600E2
:208730002942561676256F00761BFFF0E20000BDE63006002942561676256F00761BFFF0AC
:20874000E20000BDE63006002942561676256F00761BFFF0E20000BDE6300600294256166B
:2087500076256F00761BFFF0E20000BDE63006002942561676256F00761BFFF0E20000BDC4
:20876000E63006002942561676256F00764087799A0A9B0276408781764087D2000676229A
:20877000761F01C056BF552556BFAA25761AFF6900067622761F01C056BF6829761AFF6996
:208780000006FE0297429641761F01C043116C027625CC110180FFC6610576221811FE7FA9
:20879000761A0E411EA69221900F80A906A60FA7611676221A1100409241CD21FFF0900F80
:2087A000CAA89621761AFF697640877992119001520160FD76221811FFBF761A92425201C8
:2087B00061035202600976229003CD11FE7FFF86CAA89611761A9242520360127622CC11C4
:2087C000FE7F1AA9010096118F0005DAFF69A8A976408EE6761F01C01A110180761AFE824E
:2087D000FF6900067622761F01C056BF011A56BF021B761F002CCC35FFF8500196351A34A8
:2087E00000041834FFF7761F01C01A1C0008FF6976780080761F01C01A1C00101A1C0400F3
:2087F0001A1C08001A1C00201A1C01001A1C10001A1C20001A1C40001A1C80001A1D00019E
:208800001A1D00021A1D00041A1D00081A1D00101A1D0020181CFFFB1A1D04001A1D08005F
:208810001A1D10001A1D20001A1D01001A1D02001A1D40001A1D80001A2001001A20020094
:208820001A2004001A2008001A2010001A202000761AFF690006FE027622761F002B282076
:20883000FFFF2821FFFF2822FFFF2823FFFF2824FFFF2825FFFF2826FFFF2827FFFF761A94
:20884000761FCFFF9238964192399641923A9641923B9641923C9641923D9641923E964139
:20885000923F9641761F002B402F6D039A016F029A00FE82FF690006FE021E4276408D2268
:20886000761F039DE203001476408D3B761F039DE203001A76408C49761F039DE203001063
:2088700076408C62761F039DE203001676408C6B761F039DE203001276408C84761F039D40
:20888000E2030018FE820006FE04E2030044761F039DE2AF0010E2AF0144E6940001AD1442
:208890006107E2AF0012E6940001AD1460039A016F029A00FE840006FE04E2030044761F30
:2088A000039DE2AF0016E2AF0144E6940001AD146107E2AF0018E6940001AD1460039A0114
:2088B0006F029A00FE840006FE0AE20300422B4502201E440F446005764088D796456F15C6
:2088C00006421E4A2BAB28AA7FF0BE000648900018A87FF00FAB60080648910FFF5860033C
:2088D000064A6102BE017E459245FE8A0006FE04E203004206421E442BAB28AA7F80BE00B6
:2088E0000644900018A87F800FAB60060644917FFF586102BE0192A6FE8400067640877976
:2088F0009A0A9B0276408781764087D27622761F01C02B1B56BF011A761A7622761F002C0D
:208900001835FFF81834FFF71834FFFBCC3400C0FFC560FD1834FFFCCC38FFC75018963863
:20891000CC38FFF8500396380620900018A8FFBC1AA994A951031E20062C900018A8FFBC2B
:208920001AA994A951031E2C062E900018A8FFBC1AA994A951031E2E761AFF697640895132
:20893000F60677003B1076260000762F0000FF6976408D7576408DE2764089F076408E511F
:208940007622761F01C0181CFFFB761A7622761F01BE02001E021E041E121E14761AFF69E1
:2089500000067622761F01BE0200C4261AA9FFFF1AA8FFFF1E2606169B00900F1AA8FFFF4E
:208960001AA9FFF01E1602001AA9FFFFC4281E28060891FF1AA8FF001E08761AFF69000699
:20897000FE047D447C431E427622761F01BE180DFFEF180DFFDF180DFFBF180DFF7FCC08A9
:20898000FCFF1AA901009608CC08F3FF1AA904009608CC08CFFF1AA910009608CC083FFF2A
:208990001AA940009608761A0648761F01AC1E0206421E04064A1E10924396139244961400
:2089A000924D9615924E9617924F9616CC153FFF1AA980009615064C1E0692509618FF6998
:2089B000FE840006FE047D447C431E427622761F01BE180DFEFF180DFDFF180DF7FF180DCE
:2089C000FBFFCC09FFFC50029609CC09FFF350089609CC09FF3F50809609CC09FFCF502089
:2089D0009609761A0648761F01AD1E0206421E04064A1E109243961392449614924D961537
:2089E000924E9617924F9616CC153FFF1AA980009615064C1E0692509618FF69FE8400065A
:2089F0008F000C00761F037DA8200200761F003019011E022B062B071A0400101A0400201F
:208A00000200761F037D1E228F000C08A8288F000C10A830761F003019011E0A761F00303D
:208A1000020019011E12761F00302B0E2B0F761F00302B162B17761F00301A0C0010761FEA
:208A200000301A140010761F00301A0C0020761F00301A140020761F037D02001E2A1E32FB
:208A30000006FE08E2030146E2030044A84206441EE48A4206461EF4E2AF0044E2AF0146B8
:208A4000E70000087700E68800007700E20300488A428AC406481ED48A428AC42BF48A423F
:208A50008AC42BFC8A428AC41AE400108A428AC41AE400208A428AC418E4FBFF8A428AC407
:208A600018E4F7FF8A428AC41AE440008A4202001ED4FE880006761F037D92390A395200EB
:208A7000610556BF01380B396F0A76408B437640800076408B4B761F037D0B390006FE04CE
:208A80002842B717284138D1E80218B0E2030044761F037D2B3A2B3B76408D21764088EEE1
:208A9000761F03C38A1002001EC476408353E2AF0042E2AF014476408B1C761F03C38A1066
:208AA000BE0006C46002BE01761F037D7E3B76408B4376408D1A761F037D923B6111761F75
:208AB00003C38A10B600BE0006C46002BE0192A66002B601761F037D7F3A923B60F17640F4
:208AC000844F76408D1E9A00FE84000628AD0400FF69561F5616561AE61002002940761FB8
:208AD00000002902761B76408E7052006142762228A98E7328A800000901611B76C08E732A
:208AE00029046F0F9B0024A9DF016C04290424A8DF011EA6F7A1248606A781A109011EA796
:208AF00024A96303FF5C3B0459A9DF010009FFEC28A9FFFF28A8FFFF090161058F3FFFFFEA
:208B000076408D9D761A76408E7228A9FFFF28A8FFFF0901610E76FFFFFF6F06DF01C3BDD1
:208B10001EA73E67C5BE24A9DF0124A8FF5860F776408E1F76408D4EFE04E2030144E2032C
:208B20000042764089F0E8024BA0E2AF01428F00DF60E8092000E302084476408A31761F05
:208B300000301804FFEF7622761F00358F008C05A80C761A761F00331A2200407623000147
:208B4000FF69FE8400063B10761F00331A2200402910FF690006FE022B413B109A00761F09
:208B5000003346226C029A0196411822FFBFF6057700762FFFFE56BF01212910FF69FE8226
:208B60000006FE0296419241610476408B436F0376408B4BFE820006E20304BDE6950003B4
:208B7000E695000CE69D0723E6930022E585E00880BDE00689BDE8D00000E850A009E700DB
:208B80000012E68E0009E700011076FFF0E6E8D0000076BFF0E4BFA90F168CA9000658AB77
:208B9000E70000128F7FF0E2E7000098E2AF0197E300599676FFF0DEE3165C95E2AE01D7DD
:208BA000E70000C37700E31702BEE6AE000BE6C10010E6A30000E6AA0000E6A4001BE312D1
:208BB000DABEE2AE04BEE6CB000BE71000C07700E6A400000006E20304BDE6950003E80134
:208BC000FC04E69D0723E6930022E585E00880BDE70000D1E8D00000E850A009E700001274
:208BD000E68E0009E700011076FFF0E6E8D0000076BFF0E4BFA90F168CA9000658ABE70052
:208BE00000128F7FF0E2E7000098E2AF0197E300599676FFF0DEE3165C95E2AE01D7E7008D
:208BF00000C37700E71000E0E593E6AE0000E6AA0000E2AF02BEE2AE04BEE6CB000BE71062
:208C000000C07700E6A400000006761BFFF00005ABBDA8BDA0BDC2BDC3BDE20000BDE2035B
:208C100000BDE20301BDE20302BDE20303BDE6300600FE02FF6929425616761F00339222C4
:208C200096411822FFBFF6057700762FFFFE56BF0121762300012910FF6976408A6B3B10E9
:208C30009241761F00339622FE82E2AF03BEE2AF02BEE2AF01BEE2AF00BEE28000BEC5BE6C
:208C4000C4BE83BE8ABE87BE00033B30FFF176177602FE0802201E42E590E20300440F42EA
:208C5000600676408C62E20300446F099A0028A87FF01E4602001E4806481E44E2AF00442F
:208C6000FE880006FE029A0028A87F801E42E2AF0042FE820006FE0802201E42E590E20364
:208C700000440F42600676408C84E20300446F093B01FF2FFFE01E4602001E4806481E44BD
:208C8000E2AF0044FE880006FE023B01FF2FFF001E42E2AF0042FE820006E8021511E80F4A
:208C9000CC19E7000040E801E24AE8087EDAE688000176BFEBDC76FFECDCBFA90F1618A965
:208CA00001FFFF8058A9E6F10000E801F153E80D555BE3041196E302D897E86FC000E700AB
:208CB00000D37700E71000C07700E30099967700E720005B7700E30698977700E71000C084
:208CC0000006E8021511E80FCC19E7000040E801E24AE8087EDAE688000176BFECDC76FF3D
:208CD000EBDCBFA90F1618A901FFFF8058A9E6F10000E801F153E80D555BE3041196E302D3
:208CE000D897E86FC000E70000D37700E72000C07700E30099967700E71000CB7700E306D4
:208CF00098977700E71000C00006FE02E203004276408C8DFE820006FE02E20300427640A8
:208D00008CC1FE820006FE02E203004276408DC1FE820006FE02E203004276408BBBFE822C
:208D10000006FE04E2030144E203004276408B6CFE84000629102920FF6900063B10FF6912
:208D200000060006FE0802201E42E590E20300440F42600676408D3BE20300446F093B01EF
:208D3000FF2FFFF01E4602001E4806481E44E2AF0044FE880006FE025CAD8F40F0CE02028F
:208D4000DC825CA476408E023B01FF2FFF801E42E2AF0042FE82000677006F00B2BD761FE3
:208D5000033E59A9923A610D28ABFFFF28AAFFFF28A9FFFF28A8FFFF0FAB6103767FFFFF37
:208D6000761F037DC53C3E67761F033E063E61041EA792A13E67761F033E063C61031EA7DB
:208D70003E6776408D4C8BBE00063B10761F00331820FFFE2B222B242B262B282B2A2B2C2C
:208D80002B2E2B302B322B342B362B382B232B252B272B292B2B2B2D2B2F2B312B332B3539
:208D90002B372B39FF690006761F00331A2000012821FFFF2910FF690006B2BDAABDA2BD69
:208DA000FE0882A4D1005ACB6F155CAD2901560303A107A3DC8809025CA483A902087640D8
:208DB0008E02064261068A44834676408E025ACBD90192A254A166EAFE8882BE86BE8BBEBC
:208DC0000006E6920001E84FC002E700004B7700E700009B7700E8CFF01B7700E70000C990
:208DD0007700E700008B7700E70000CB7700E8CFF01BE5A0E70000C97700E6C10001E700FD
:208DE00000400006FE068F00EFCEA8428F000D00A84476222B4592455280630D83448A42B7
:208DF000A0A9C4840902A8421E44C2C50A459245528064F5761A761F00331A200001FF69A8
:208E0000FE8600065200A8ABC5A4610788A9DE815C857C87000EFFFE88A90FA6610F53002A
:208E1000610D9DFF5CA876BFFFFE92859687000EFFFE92859687000CFFF8A9A4000628AB66
:208E2000FFFF28AAFFFF28A9FFFF28A8FFFF0FAB6004BE00D4006F0928ABFFFF28AAFFFFFE
:208E3000A9A488C409028AA992A676408A7F0006E693000AE5A0E70000537700E8D0001BC2
:208E40007700E70000D27700E7000053E5A1E8D0001BE6A10000E70000D27700E7000080BA
:208E500000067622761F01BECC06FFFC50019606CC06FFF350049606761AFF690006761F0F
:208E6000037DA83E0006761F037DA83C00060006561F7622B9C028290068761A00408AC622
:068E70009A010006000655
:208E7300FFB2EF800000000000000000000000003F8000003F80F5C33EA8F5C33EA8000005
:208E830047800000478024733E4F24733E4F0000000000000000FE0046FF48353F034000B7
:208E9300461CB71738D100000000000000000000000000000000BC12C102FE0046FF851F0E
:208EA3003E0B0CCAC00F4000461CB71738D100000000000000000000000000000000F82927
:208EB300C0383A37C27026CABE9B000043BE00000000000000000000C3BE0000BF800000FA
:208EC3000000FFFFCFBA00000001FFFECFBC000000000000FFFECFBE000000000000FFFFF7
:208ED300DF7800000000FFFFDF7900000000FFFEDF7C00008E670000FFFEDF7E00008E6736
:068EE30000000000000089
:088EE600190156C3FFFF00064D
:00000001FF
